S01A000041544D4547413132385F547261736843616E2E737265634D
S113000049C000004FC000004DC000004BC00000BC
S113001049C0000047C0000045C0000043C00000C4
S113002041C000003FC000003DC000003BC00000D4
S113003039C0000037C0000035C0000033C00000E4
S113004031C000002FC000002DC000002BC00000F4
S113005029C0000027C0000025C0000023C0000004
S113006021C000001FC000001DC000001BC0000014
S113007019C0000017C0000015C0000013C0000024
S113008011C000000FC000000DC000000BC0000034
S113009009C0000011241FBECFEFD0E1DEBFCDBFE9
S11300A041D043C0ADCFE0E0F1E210828093002064
S11300B081E080830F920F90108287EC90E001978B
S11300C0F1F700C000000895E0E0F1E283E08083EE
S11300D082E080838FE39FE10197F1F700C0000085
S11300E088E3E1DF8CE0DFDF86E0DDDF81E0DBDF7A
S11300F08FE39FE10197F1F700C00000089580E8C5
S113010085BF94E490937400809375008FEF84B955
S113011015B88AB91BB88CE08DB91EB810BA109204
S111012000220895ECDFD0DFFFCFF894FFCF6C
S9030000FC
