:1000000049C00000D3C10000E7C1000060C000008B
:100010005EC000005CC000005AC0000058C0000074
:1000200056C0000054C0000052C0000050C0000084
:100030004EC000004CC000004AC0000048C0000094
:1000400046C0000044C0000042C0000040C00000A4
:100050003EC000003CC000003AC0000038C00000B4
:1000600036C0000034C0000032C0000030C00000C4
:100070002EC000002CC000002AC0000028C00000D4
:1000800026C0000024C0000022C0000020C00000E4
:100090001EC0000011241FBECFEFD0E1DEBFCDBFD8
:1000A00011E0A0E0B1E0E6E2F4E000E00BBF02C046
:1000B00007900D92AA33B107D9F721E0AAE3B1E086
:1000C00001C01D92A234B207E1F72FD1AAC198CF87
:1000D000E0E0F1E210828093002081E0808385E0FF
:1000E0008A95F1F70000108287EC90E00197F1F714
:1000F00000C000000895E0E0F1E292E09083809378
:10010000002083E0808385E08A95F1F700009083EA
:1001100087EC90E00197F1F700C000000895CF93BD
:10012000DF93EB01D5DF02C0E6DF219688818111E4
:10013000FBCFDF91CF910895E0E0F1E283E080838F
:1001400082E080838FE39FE10197F1F700C0000018
:1001500088E3BEDF8CE0BCDF86E0BADF81E0B8DF99
:100160008FE39FE10197F1F700C00000089580E858
:1001700085BF94E4909374008093750080EF84B9F8
:1001800015B81AB81BB88AE08DB91EB810BA11BAE2
:100190008FE183BB109200211092002008951092ED
:1001A000800082E08093810010928200109285008E
:1001B000109284008AE08093690088E880936A0046
:1001C0007894089582E8809390008BE18093910069
:1001D00087E893E190939700809396000895882391
:1001E00019F0813041F008958DE790E090939900E7
:1001F00080939800089581E792E09093990080930E
:1002000098000895882321F0813009F446C08AC0FF
:100210008EB180618EB98DB381608DBB20E42A954B
:10022000F1F78EB18F7E8EB9109285001092840006
:100230001CBA8FEF90E722E0815090402040E1F718
:1002400000C000001DBA80913E0190913F01883EA0
:10025000910530F488EE90E090933F0180933E0149
:1002600080913E0190913F018134954B30F080E4C4
:1002700095EB90933F0180933E0120913E01309198
:100280003F01AFE9B6E4BED09695879592958295E9
:100290008F7089279F70892708958EB180628EB9EB
:1002A0008DB382608DBB80E48A95F1F78EB18F7D2E
:1002B0008EB910928500109284001CBA9FEF20E73F
:1002C00082E0915020408040E1F700C000001DBA5C
:1002D0008091400190914101883E910530F488EE73
:1002E00090E0909341018093400180914001909172
:1002F00041018134954B30F080E495EB90934101BE
:10030000809340012091400130914101AFE9B6E472
:1003100079D096958795929582958F7089279F7051
:100320008927089580E090E0089521DF05DF60E0EF
:1003300071E080E8F4DE60E171E080ECF0DE2FDF58
:1003400041DF2FEF83EC99E0215080409040E1F7AE
:1003500000C0000080E056DFCAE3D1E099838883C3
:1003600081E050DF9B838A83888199814E9718F4BE
:1003700081E035DF02C080E032DF80913C01909166
:100380003D014E9728F46DE171E080ECC8DE04C0B9
:100390006BE271E080ECC3DE2FEF81EE94E0215040
:1003A00080409040E1F700C00000D4CF1F920F9230
:1003B0000FB60F9211248F939F9380918400909198
:1003C000850090933F0180933E019F918F910F9004
:1003D0000FBE0F901F9018951F920F920FB60F929D
:1003E00011248F939F938091840090918500909326
:1003F0004101809340019F918F910F900FBE0F900C
:100400001F901895A29FB001B39FC001A39F700DCC
:10041000811D1124911DB29F700D811D1124911D0C
:060420000895F894FFCFDF
:10042600536D6172742054726173682043616E006B
:10043600496E697469616C697A696E6700537461A3
:10044600747573203A2046756C6C0053746174752C
:0A04560073203A20456D70747900A0
:00000001FF
